{
  "_format": "hh-sol-artifact-1",
  "contractName": "BTK_TOKEN",
  "sourceName": "contracts/BTK_TOKEN.sol",
  "abi": [
    {
      "inputs": [],
      "stateMutability": "nonpayable",
      "type": "constructor"
    },
    {
      "anonymous": false,
      "inputs": [
        {
          "indexed": true,
          "internalType": "address",
          "name": "_owner",
          "type": "address"
        },
        {
          "indexed": true,
          "internalType": "address",
          "name": "_spender",
          "type": "address"
        },
        {
          "indexed": false,
          "internalType": "uint256",
          "name": "_value",
          "type": "uint256"
        }
      ],
      "name": "Approval",
      "type": "event"
    },
    {
      "anonymous": false,
      "inputs": [
        {
          "indexed": true,
          "internalType": "address",
          "name": "_from",
          "type": "address"
        },
        {
          "indexed": true,
          "internalType": "address",
          "name": "_to",
          "type": "address"
        },
        {
          "indexed": false,
          "internalType": "uint256",
          "name": "_value",
          "type": "uint256"
        }
      ],
      "name": "Transfer",
      "type": "event"
    },
    {
      "inputs": [
        {
          "internalType": "address",
          "name": "",
          "type": "address"
        },
        {
          "internalType": "address",
          "name": "",
          "type": "address"
        }
      ],
      "name": "allowance",
      "outputs": [
        {
          "internalType": "uint256",
          "name": "",
          "type": "uint256"
        }
      ],
      "stateMutability": "view",
      "type": "function"
    },
    {
      "inputs": [
        {
          "internalType": "address",
          "name": "_spender",
          "type": "address"
        },
        {
          "internalType": "uint256",
          "name": "_amount",
          "type": "uint256"
        }
      ],
      "name": "approve",
      "outputs": [
        {
          "internalType": "bool",
          "name": "success",
          "type": "bool"
        }
      ],
      "stateMutability": "nonpayable",
      "type": "function"
    },
    {
      "inputs": [
        {
          "internalType": "address",
          "name": "account",
          "type": "address"
        }
      ],
      "name": "balanceOf",
      "outputs": [
        {
          "internalType": "uint256",
          "name": "",
          "type": "uint256"
        }
      ],
      "stateMutability": "view",
      "type": "function"
    },
    {
      "inputs": [],
      "name": "getDecimals",
      "outputs": [
        {
          "internalType": "uint8",
          "name": "",
          "type": "uint8"
        }
      ],
      "stateMutability": "view",
      "type": "function"
    },
    {
      "inputs": [],
      "name": "getMaxToken",
      "outputs": [
        {
          "internalType": "uint256",
          "name": "",
          "type": "uint256"
        }
      ],
      "stateMutability": "view",
      "type": "function"
    },
    {
      "inputs": [],
      "name": "getTotalToken",
      "outputs": [
        {
          "internalType": "uint256",
          "name": "",
          "type": "uint256"
        }
      ],
      "stateMutability": "view",
      "type": "function"
    },
    {
      "inputs": [],
      "name": "name",
      "outputs": [
        {
          "internalType": "string",
          "name": "",
          "type": "string"
        }
      ],
      "stateMutability": "view",
      "type": "function"
    },
    {
      "inputs": [],
      "name": "owner",
      "outputs": [
        {
          "internalType": "address",
          "name": "",
          "type": "address"
        }
      ],
      "stateMutability": "view",
      "type": "function"
    },
    {
      "inputs": [
        {
          "internalType": "uint256",
          "name": "_newTokenAmount",
          "type": "uint256"
        }
      ],
      "name": "releaseNewToken",
      "outputs": [
        {
          "internalType": "bool",
          "name": "",
          "type": "bool"
        }
      ],
      "stateMutability": "nonpayable",
      "type": "function"
    },
    {
      "inputs": [],
      "name": "symbol",
      "outputs": [
        {
          "internalType": "string",
          "name": "",
          "type": "string"
        }
      ],
      "stateMutability": "view",
      "type": "function"
    },
    {
      "inputs": [],
      "name": "totalSupply",
      "outputs": [
        {
          "internalType": "uint256",
          "name": "",
          "type": "uint256"
        }
      ],
      "stateMutability": "view",
      "type": "function"
    },
    {
      "inputs": [
        {
          "internalType": "address",
          "name": "_to",
          "type": "address"
        },
        {
          "internalType": "uint256",
          "name": "_amount",
          "type": "uint256"
        }
      ],
      "name": "transfer",
      "outputs": [
        {
          "internalType": "bool",
          "name": "success",
          "type": "bool"
        }
      ],
      "stateMutability": "nonpayable",
      "type": "function"
    },
    {
      "inputs": [
        {
          "internalType": "address",
          "name": "_from",
          "type": "address"
        },
        {
          "internalType": "address",
          "name": "_to",
          "type": "address"
        },
        {
          "internalType": "uint256",
          "name": "_value",
          "type": "uint256"
        }
      ],
      "name": "transferFrom",
      "outputs": [
        {
          "internalType": "bool",
          "name": "success",
          "type": "bool"
        }
      ],
      "stateMutability": "nonpayable",
      "type": "function"
    }
  ],
  "bytecode": "0x60806040526040518060400160405280600b81526020017f426174797220546f6b656e000000000000000000000000000000000000000000815250600090805190602001906200005192919062000187565b506040518060400160405280600381526020017f42544b0000000000000000000000000000000000000000000000000000000000815250600190805190602001906200009f92919062000187565b5060006002556012600660006101000a81548160ff021916908360ff160217905550348015620000ce57600080fd5b5069010f0cf064dd59200000600881905550600854600281905550600854600460003373ffffffffffffffffffffffffffffffffffffffff1673ffffffffffffffffffffffffffffffffffffffff1681526020019081526020016000208190555033600360006101000a81548173ffffffffffffffffffffffffffffffffffffffff021916908373ffffffffffffffffffffffffffffffffffffffff16021790555069d3c21bcecceda10000006007819055506200029c565b828054620001959062000237565b90600052602060002090601f016020900481019282620001b9576000855562000205565b82601f10620001d457805160ff191683800117855562000205565b8280016001018555821562000205579182015b8281111562000204578251825591602001919060010190620001e7565b5b50905062000214919062000218565b5090565b5b808211156200023357600081600090555060010162000219565b5090565b600060028204905060018216806200025057607f821691505b602082108114156200026757620002666200026d565b5b50919050565b7f4e487b7100000000000000000000000000000000000000000000000000000000600052602260045260246000fd5b61126d80620002ac6000396000f3fe608060405234801561001057600080fd5b50600436106100cf5760003560e01c806370a082311161008c57806395d89b411161006657806395d89b411461022a578063a9059cbb14610248578063dd62ed3e14610278578063f0141d84146102a8576100cf565b806370a08231146101ac5780637de6294f146101dc5780638da5cb5b1461020c576100cf565b8063051dc333146100d457806306fdde03146100f2578063095ea7b31461011057806318160ddd1461014057806323b872dd1461015e5780633d0673d41461018e575b600080fd5b6100dc6102c6565b6040516100e99190610f14565b60405180910390f35b6100fa6102d0565b6040516101079190610e72565b60405180910390f35b61012a60048036038101906101259190610cd6565b61035e565b6040516101379190610e57565b60405180910390f35b610148610450565b6040516101559190610f14565b60405180910390f35b61017860048036038101906101739190610c87565b61045a565b6040516101859190610e57565b60405180910390f35b61019661073d565b6040516101a39190610f14565b60405180910390f35b6101c660048036038101906101c19190610c22565b610747565b6040516101d39190610f14565b60405180910390f35b6101f660048036038101906101f19190610d12565b610790565b6040516102039190610e57565b60405180910390f35b610214610969565b6040516102219190610e3c565b60405180910390f35b61023261098f565b60405161023f9190610e72565b60405180910390f35b610262600480360381019061025d9190610cd6565b610a1d565b60405161026f9190610e57565b60405180910390f35b610292600480360381019061028d9190610c4b565b610bbc565b60405161029f9190610f14565b60405180910390f35b6102b0610be1565b6040516102bd9190610f2f565b60405180910390f35b6000600754905090565b600080546102dd90611078565b80601f016020809104026020016040519081016040528092919081815260200182805461030990611078565b80156103565780601f1061032b57610100808354040283529160200191610356565b820191906000526020600020905b81548152906001019060200180831161033957829003601f168201915b505050505081565b600081600560003373ffffffffffffffffffffffffffffffffffffffff1673ffffffffffffffffffffffffffffffffffffffff16815260200190815260200160002060008573ffffffffffffffffffffffffffffffffffffffff1673ffffffffffffffffffffffffffffffffffffffff168152602001908152602001600020819055508273ffffffffffffffffffffffffffffffffffffffff163373ffffffffffffffffffffffffffffffffffffffff167f8c5be1e5ebec7d5bd14f71427d1e84f3dd0314c0f7b2291e5b200ac8c7c3b9258460405161043e9190610f14565b60405180910390a36001905092915050565b6000600254905090565b6000600360009054906101000a900473ffffffffffffffffffffffffffffffffffffffff1673ffffffffffffffffffffffffffffffffffffffff163373ffffffffffffffffffffffffffffffffffffffff16146104ec576040517f08c379a00000000000000000000000000000000000000000000000000000000081526004016104e390610e94565b60405180910390fd5b81600460008673ffffffffffffffffffffffffffffffffffffffff1673ffffffffffffffffffffffffffffffffffffffff16815260200190815260200160002054101561056e576040517f08c379a000000000000000000000000000000000000000000000000000000000815260040161056590610ef4565b60405180910390fd5b600082116105b1576040517f08c379a00000000000000000000000000000000000000000000000000000000081526004016105a890610eb4565b60405180910390fd5b81600460008673ffffffffffffffffffffffffffffffffffffffff1673ffffffffffffffffffffffffffffffffffffffff168152602001908152602001600020546105fc9190610fbc565b600460008673ffffffffffffffffffffffffffffffffffffffff1673ffffffffffffffffffffffffffffffffffffffff1681526020019081526020016000208190555081600460008573ffffffffffffffffffffffffffffffffffffffff1673ffffffffffffffffffffffffffffffffffffffff1681526020019081526020016000205461068a9190610f66565b600460008573ffffffffffffffffffffffffffffffffffffffff1673ffffffffffffffffffffffffffffffffffffffff168152602001908152602001600020819055508273ffffffffffffffffffffffffffffffffffffffff168473ffffffffffffffffffffffffffffffffffffffff167fddf252ad1be2c89b69c2b068fc378daa952ba7f163c4a11628f55a4df523b3ef8460405161072a9190610f14565b60405180910390a3600190509392505050565b6000600254905090565b6000600460008373ffffffffffffffffffffffffffffffffffffffff1673ffffffffffffffffffffffffffffffffffffffff168152602001908152602001600020549050919050565b6000600360009054906101000a900473ffffffffffffffffffffffffffffffffffffffff1673ffffffffffffffffffffffffffffffffffffffff163373ffffffffffffffffffffffffffffffffffffffff1614610822576040517f08c379a000000000000000000000000000000000000000000000000000000000815260040161081990610e94565b60405180910390fd5b81600260008282546108349190610f66565b925050819055508160046000600360009054906101000a900473ffffffffffffffffffffffffffffffffffffffff1673ffffffffffffffffffffffffffffffffffffffff1673ffffffffffffffffffffffffffffffffffffffff16815260200190815260200160002060008282546108ac9190610f66565b9250508190555060025460075410156108fa576040517f08c379a00000000000000000000000000000000000000000000000000000000081526004016108f190610ed4565b60405180910390fd5b3373ffffffffffffffffffffffffffffffffffffffff16600073ffffffffffffffffffffffffffffffffffffffff167fddf252ad1be2c89b69c2b068fc378daa952ba7f163c4a11628f55a4df523b3ef846040516109589190610f14565b60405180910390a360019050919050565b600360009054906101000a900473ffffffffffffffffffffffffffffffffffffffff1681565b6001805461099c90611078565b80601f01602080910402602001604051908101604052809291908181526020018280546109c890611078565b8015610a155780601f106109ea57610100808354040283529160200191610a15565b820191906000526020600020905b8154815290600101906020018083116109f857829003601f168201915b505050505081565b600081600460003373ffffffffffffffffffffffffffffffffffffffff1673ffffffffffffffffffffffffffffffffffffffff168152602001908152602001600020541015610aa1576040517f08c379a0000000000000000000000000000000000000000000000000000000008152600401610a9890610ef4565b60405180910390fd5b81600460003373ffffffffffffffffffffffffffffffffffffffff1673ffffffffffffffffffffffffffffffffffffffff1681526020019081526020016000206000828254610af09190610fbc565b9250508190555081600460008573ffffffffffffffffffffffffffffffffffffffff1673ffffffffffffffffffffffffffffffffffffffff1681526020019081526020016000206000828254610b469190610f66565b925050819055508273ffffffffffffffffffffffffffffffffffffffff163373ffffffffffffffffffffffffffffffffffffffff167fddf252ad1be2c89b69c2b068fc378daa952ba7f163c4a11628f55a4df523b3ef84604051610baa9190610f14565b60405180910390a36001905092915050565b6005602052816000526040600020602052806000526040600020600091509150505481565b6000600660009054906101000a900460ff16905090565b600081359050610c0781611209565b92915050565b600081359050610c1c81611220565b92915050565b600060208284031215610c3457600080fd5b6000610c4284828501610bf8565b91505092915050565b60008060408385031215610c5e57600080fd5b6000610c6c85828601610bf8565b9250506020610c7d85828601610bf8565b9150509250929050565b600080600060608486031215610c9c57600080fd5b6000610caa86828701610bf8565b9350506020610cbb86828701610bf8565b9250506040610ccc86828701610c0d565b9150509250925092565b60008060408385031215610ce957600080fd5b6000610cf785828601610bf8565b9250506020610d0885828601610c0d565b9150509250929050565b600060208284031215610d2457600080fd5b6000610d3284828501610c0d565b91505092915050565b610d4481610ff0565b82525050565b610d5381611002565b82525050565b6000610d6482610f4a565b610d6e8185610f55565b9350610d7e818560208601611045565b610d8781611108565b840191505092915050565b6000610d9f601783610f55565b9150610daa82611119565b602082019050919050565b6000610dc2601583610f55565b9150610dcd82611142565b602082019050919050565b6000610de5603583610f55565b9150610df08261116b565b604082019050919050565b6000610e08602583610f55565b9150610e13826111ba565b604082019050919050565b610e278161102e565b82525050565b610e3681611038565b82525050565b6000602082019050610e516000830184610d3b565b92915050565b6000602082019050610e6c6000830184610d4a565b92915050565b60006020820190508181036000830152610e8c8184610d59565b905092915050565b60006020820190508181036000830152610ead81610d92565b9050919050565b60006020820190508181036000830152610ecd81610db5565b9050919050565b60006020820190508181036000830152610eed81610dd8565b9050919050565b60006020820190508181036000830152610f0d81610dfb565b9050919050565b6000602082019050610f296000830184610e1e565b92915050565b6000602082019050610f446000830184610e2d565b92915050565b600081519050919050565b600082825260208201905092915050565b6000610f718261102e565b9150610f7c8361102e565b9250827fffffffffffffffffffffffffffffffffffffffffffffffffffffffffffffffff03821115610fb157610fb06110aa565b5b828201905092915050565b6000610fc78261102e565b9150610fd28361102e565b925082821015610fe557610fe46110aa565b5b828203905092915050565b6000610ffb8261100e565b9050919050565b60008115159050919050565b600073ffffffffffffffffffffffffffffffffffffffff82169050919050565b6000819050919050565b600060ff82169050919050565b60005b83811015611063578082015181840152602081019050611048565b83811115611072576000848401525b50505050565b6000600282049050600182168061109057607f821691505b602082108114156110a4576110a36110d9565b5b50919050565b7f4e487b7100000000000000000000000000000000000000000000000000000000600052601160045260246000fd5b7f4e487b7100000000000000000000000000000000000000000000000000000000600052602260045260246000fd5b6000601f19601f8301169050919050565b7f43616c6c6572206973206e6f7420746865206f776e6572000000000000000000600082015250565b7f56616c7565206d75737420626520677265617420300000000000000000000000600082015250565b7f497420697320666f7262696464656e20746f2072656c6561736520746f6b656e60008201527f73206d6f7265207468616e206d6178537570706c790000000000000000000000602082015250565b7f5468657265206973206e6f7420736f206d75636820746f6b656e206f6e20736560008201527f6e64657221000000000000000000000000000000000000000000000000000000602082015250565b61121281610ff0565b811461121d57600080fd5b50565b6112298161102e565b811461123457600080fd5b5056fea2646970667358221220649d423986872046b811ec7e7f63791714529d94209001868a5e1c834f07cedf64736f6c63430008040033",
  "linkReferences": {},
  "deployedLinkReferences": {}
}